:020000040800F2
:100000003804002045010008591000085B10000862
:100010005F1000086310000867100008000000006F
:100020000000000000000000000000006B1000084D
:100030006D100008000000006F100008711000082B
:100040005F0100085F0100085F0100085F01000810
:100050005F0100085F0100085F0100085F01000800
:100060005F0100085F0100085F0100085F010008F0
:100070005F0100085F0100085F0100085F010008E0
:100080005F0100085F0100085F0100085F010008D0
:100090005F0100085F0100085F0100085F010008C0
:1000A0005F0100085F0100085F0100085F010008B0
:1000B0005F0100085F0100085F0100085F010008A0
:1000C0005F0100085F0100085F0100085F01000890
:1000D0005F01000879100008BD1000085F010008EA
:1000E0005F0100085F0100085F0100085F01000870
:1000F0005F0100085F0100085F0100085F01000860
:100100005F0100085F0100085F0100085F0100084F
:100110005F0100085F0100085F0100085F0100083F
:100120005F0100085F0100085F0100085F0100082F
:10013000DFF80CD001F08CFE00480047250F0008C6
:10014000380400200648804706480047FEE7FEE7DF
:10015000FEE7FEE7FEE7FEE7FEE7FEE7FEE7FEE777
:1001600045020008310100080CB500200190009004
:100170006B48006840F480306949086000BF6848F7
:10018000006800F4003000900198401C0190009835
:1001900018B90198B0F5A06FF1D16148006810F46A
:1001A000003F02D00120009001E000200090009864
:1001B000012842D15B48006840F0100059490860AE
:1001C0000846006820F0030008600846006840F018
:1001D000020008605248406851494860084640683B
:1001E00048600846406840F48060486008464068BF
:1001F00020F47C1048600846406840F4E8104860ED
:100200000846006840F08070086000BF44480068FD
:1002100010F0007FFAD04248406820F003004049C7
:1002200048600846406840F00200486000BF3C4813
:10023000406800F00C000828F9D10CBD10B5FFF79C
:1002400093FF10BD10B53648006840F001003449F6
:10025000086008464068344908403149486008460B
:100260000068324908402E4908600846006820F4BA
:10027000802008600846406820F4FE0048604FF483
:100280001F008860FFF7DAFF4FF000602849086020
:1002900010BD10B5002100200022214B5B6803F047
:1002A0000C0121B1042906D0082928D107E0214BEF
:1002B000214C236027E01F4B1F4C236023E0184B89
:1002C0005B6803F47010164B5B6803F48032022302
:1002D00003EB904022B9194B4343174C23600DE0C8
:1002E0000F4B5B6813F4003F04D0144B4343124C94
:1002F000236003E00F4B43430F4C236003E00D4B9F
:100300000D4C236000BF00BF054B5B68C3F30313B4
:100310000B4CE15C084B1B68CB40074C236010BDC5
:1003200000100240002002400000FFF8FFFFF6FE30
:1003300008ED00E000127A000000002000093D00F6
:100340000400002031490143314A1160704770B503
:10035000002100230F22C4780CB32D4C246804F430
:10036000E064C4F5E064210AC1F10403CA404478A2
:1003700004FA03F18478144021430901254C0678DE
:10038000A155047804F01F050124AC4005786D11D7
:100390004FF0E02606EB8505C5F8004109E004783A
:1003A00004F01F050124AC401B4D0678761145F87A
:1003B000264070BD194A0A400243154B1B1F1A60A4
:1003C000704739B1124A121D12680243104B1B1DAF
:1003D0001A6006E00E4A121D126882430C4B1B1D68
:1003E0001A607047042808D14FF0E021096941F0F4
:1003F00004014FF0E022116107E04FF0E0210969AC
:1004000021F004014FF0E022116170470000FA056D
:100410000CED00E000E400E080E100E080FFFF1F61
:1004200010B50446CA48844208D10121042000F0D6
:1004300027FB0021042000F023FB46E0C54884424E
:1004400008D10121082000F01BFB0021082000F04A
:1004500017FB3AE0C048844208D10121102000F087
:100460000FFB0021102000F00BFB2EE0BB48844264
:1004700008D10121202000F003FB0021202000F002
:10048000FFFA22E0B648844208D10121402000F062
:10049000F7FA0021402000F0F3FA16E0B148844258
:1004A00008D10121802000F0EBFA0021802000F02B
:1004B000E7FA0AE0AC48844207D10121801500F038
:1004C000DFFA0021A01500F0DBFA10BD10B5012104
:1004D000084600F0D5FA0021012000F0D1FA10BD45
:1004E0002DE9F041024600250026002000230024CB
:1004F000002791F803C00CF00F0591F803C01CF021
:10050000100F03D091F802C04CEA050591F800C025
:10051000BCF1000F31D0146800202BE04FF0010C2B
:100520000CFA00F3B1F800C00CEA03069E4220D199
:1005300083004FF00F0C0CFA03F7BC4305FA03FCE1
:100540004CEA040491F803C0BCF1280F06D14FF027
:10055000010C0CFA00FCC2F814C00AE091F803C0C8
:10056000BCF1480F05D14FF0010C0CFA00FCC2F8A9
:1005700010C0401C0828D1D31460B1F800C0BCF1F1
:10058000FF0F34DD546800202EE000F1080C4FF01E
:10059000010808FA0CF3B1F800C00CEA03069E4209
:1005A00021D183004FF00F0C0CFA03F7BC4305FA7E
:1005B00003FC4CEA040491F803C0BCF1280F05D1F8
:1005C00000F1080C08FA0CF8C2F8148091F803C086
:1005D000BCF1480F07D100F1080C4FF0010808FAF0
:1005E0000CF8C2F81080401C0828CED35460BDE837
:1005F000F0814FF6FF710180022181700421C170EA
:1006000070470246002093680B4201D0012000E0B1
:10061000002070470146886880B27047024600207B
:10062000D3680B4201D0012000E000207047014652
:10063000C86880B2704701617047416170470AB174
:10064000016100E041617047C16070474FF4803242
:100650000A438261816182618269826970470246D0
:100660000020424B18684FF68073184040EA021091
:1006700008433E4B186070473D49C8617047F0B56C
:100680000A46002300240021002500F00046B6F1B0
:10069000004F02D1354EF16901E0344E7168C0F36C
:1006A000034583B200F44016B6F5401F08D121F08F
:1006B00070612E4E766826F070662C4F7E6012E0D8
:1006C00000F48016B6F5801F06D1032606FA05F45D
:1006D000A14341F0706106E0460D360103FA06F6CB
:1006E000B14341F0706122B1460D360103FA06F6BE
:1006F000314300F00046B6F1004F02D11B4EF161CC
:1007000001E01A4E7160F0BD30B500228B071C0F5E
:100710000F2303FA04F2154B08338C1053F82430DE
:100720009343124C08348D1044F8253023468C1026
:1007300053F824308C07240F00FA04F423430B4CA5
:1007400008348D1044F8253030BD0A4908607047E0
:1007500000080140000C014000100140001401405D
:1007600000180140001C0140002001400000014031
:1007700000002042DC002042DD48006840F001001B
:10078000DB49086008464068DA490840D8494860B3
:1007900008460068D8490840D549086008460068FE
:1007A00020F4802008600846406820F4FE0048607D
:1007B0004FF41F0088607047CD49096821F48031EB
:1007C000CB4A11601146096821F480211160B0F50F
:1007D000803F03D0B0F5802F0ED106E0C4490968F0
:1007E00041F48031C24A116007E0C149096841F40F
:1007F000A021BF4A116000E000BF00BF704710B5E4
:1008000001460022002300204A11012A02D1B84CDF
:10081000236806E0022A02D1B54C236A01E0B44CF9
:10082000636A01F01F02012494401C4201D00120A0
:1008300000E0002010BD38B5002000900024002505
:1008400000BF3120FFF7DBFF05460098401C0090F9
:100850000098B0F5A06F01D0002DF2D03120FFF745
:10086000CEFF08B1012400E00024204638BD014637
:1008700000209F4A106820F0F80040EAC100106094
:1008800070479E490860704702460020984B5868A0
:1008900020F47C1042EA01031843954B58607047DE
:1008A00096490866704701460020914A506820F03A
:1008B00003000843506070478D48406800F00C000A
:1008C0007047014600208A4A506820F0F000084333
:1008D0005060704701460020854A506820F4E0606F
:1008E00008435060704701460020814A506820F458
:1008F000605040EAC1005060704729B17C4A527A8A
:1009000002437B4B5A7204E0794A527A8243784B15
:100910005A7270477A490860704701460020744A4D
:10092000506820F440400843506070470021754AE9
:1009300011706F4A82F82010012802D0042808D1D3
:1009400003E001216F4A117004E005216D4A117026
:1009500000E000BF00BF70476B4908607047644902
:10096000096A0143624A1162704767494439086065
:10097000704730B500210022002400235C4D6D68D3
:1009800005F00C0121B1042905D0082923D105E087
:100990005E4D056022E05D4D05601FE0544D6D68C1
:1009A00005F47012524D6D6805F48034022505EB94
:1009B00092421CB9564D554305600BE04C4D6D6895
:1009C00015F4003F03D0524D5543056002E04F4DF2
:1009D0005543056002E04D4D056000BF00BF444D2A
:1009E0006D6805F0F00109094A4D6B5C0568DD4052
:1009F00045603F4D6D6805F4E061090A454D6B5C4B
:100A00004568DD4085603A4D6D6805F46051C90A5E
:100A1000404D6B5C4568DD40C560354D6D6805F443
:100A20004041890B3C4D6B5CC568B5FBF3F5056136
:100A300030BD29B12E4A526902432D4B5A6104E060
:100A40002B4A526982432A4B5A61704729B1284A7E
:100A500092690243264B9A6104E0254A92698243D7
:100A6000234B9A61704729B1214AD2690243204B36
:100A7000DA6104E01E4AD26982431D4BDA61704795
:100A800029B11B4AD2680243194BDA6004E0184AC4
:100A9000D2688243164BDA60704729B1144A126952
:100AA0000243134B1A6104E0114A12698243104B4E
:100AB0001A61704714494039086070470F49C8648B
:100AC00070470B49C87170470948406A40F0807010
:100AD00007494862704701460020054A92680A4269
:100AE00001D0012000E00020704701498872704762
:100AF000001002400000FFF8FFFFF6FE0000424237
:100B0000D8004242201002408004424200127A0083
:100B100000093D00140000202400002010B5044608
:100B2000FB48844209D101218803FFF7A9FF002176
:100B30004FF48040FFF7A4FF32E0F648844209D129
:100B400001214804FFF7A9FF00214FF40030FFF70F
:100B5000A4FF25E0F048844209D101218804FFF771
:100B60009CFF00214FF48020FFF797FF18E0EB482F
:100B7000844209D10121C804FFF78FFF00214FF4FF
:100B80000020FFF78AFF0BE0E548844208D10121ED
:100B90000805FFF782FF00214FF48010FFF77DFF6B
:100BA00010BD2DE9F04786B005460E460024A2464A
:100BB00000BFA1460027B08900B100BF2F462C8A94
:100BC0004CF6FF700440F08804432C82AC894EF64A
:100BD000F3100440B0883189084371890843044305
:100BE000AC81AC8A4FF6FF400440B0890443AC822C
:100BF00001A8FFF7BEFEC648874202D1DDF810A06B
:100C000001E0DDF80CA0A88910F4004F08D00AEB31
:100C1000CA0000EB0A1031684900B0FBF1F807E0A8
:100C20000AEBCA0000EB0A1031688900B0FBF1F84A
:100C30006420B8FBF0F004012009642101FB108955
:100C4000A88910F4004F08D0322000EBC900B0FB97
:100C5000F1F000F00700044308E0322000EB091037
:100C60006421B0FBF1F000F00F0004432C8106B0CA
:100C7000BDE8F0874FF41651016000218180C180EA
:100C800001810C21418100218181704710B502460C
:100C90000020108A4FF2FF0318400B884C88234332
:100CA0008C882343CC8823431843108210BD002135
:100CB000018041808180C180704721B1828942F4E6
:100CC0000052828104E082894DF6FF731A408281CE
:100CD0007047F0B503460024002600250020A1F54A
:100CE00010676A3F00D100BF1846C1F3421401F0FB
:100CF0001F06012707FA06F5012C01D10C3004E08C
:100D0000022C01D1103000E014301AB107682F43D3
:100D1000076002E00768AF430760F0BD1AB1838A3D
:100D20000B43838202E0838A8B4383827047028A6B
:100D30004FF6F0731A400282028A0A430282704719
:100D400082894FF2FF731A40828182890A4382812D
:100D5000704721B1828942F00202828104E08289D7
:100D60004FF6FD731A4082817047028A4FF6DF7397
:100D70001A400282028A0A430282704721B1028A23
:100D800042F48042028204E0028A4BF6FF731A406A
:100D900002827047C1F3080282807047014688884A
:100DA000C0F308007047818941F0010181817047DB
:100DB000028BD2B20283028B42EA01220283704785
:100DC000028B02F47F420283028B0A430283704744
:100DD00021B1828A42F02002828204E0828A4FF6A8
:100DE000DF731A408282704721B1828A42F010027A
:100DF000828204E0828A4FF6EF731A408282704743
:100E000021B1828A42F00802828204E0828A4FF68F
:100E1000F7731A408282704721B1828942F40042FE
:100E2000828103E08289C2F30E028281704721B180
:100E3000828A42F40062828204E0828A4FF2FF7367
:100E40001A4082827047828A4FF6FB731A40828270
:100E5000828A0A438282704721B1828A42F002026A
:100E6000828204E0828A4FF6FD731A4082827047C4
:100E700002460020B1F5007F00D100BF13880B426D
:100E800001D0012000E00020704701F40072B2F5AB
:100E9000007F00D100BFCA430280704770B5024690
:100EA0000024002300250020A1F510666A3E00D131
:100EB00000BFC1F3421501F01F03012606FA03F338
:100EC000012D02D19689334006E0022D02D1168A07
:100ED000334001E0968A33400C12012606FA04F4EE
:100EE0001688344013B10CB1012000E0002070BD21
:100EF00010B500220023A1F510646A3C00D100BFA8
:100F00000A1201249440A3B2DC43048010BD000007
:100F1000003801400044004000480040004C0040C0
:100F20000050004000F036FF00F0DAFE00F0E2F87A
:100F300000F01FF900F071F900F05BF93AA13CA054
:100F400000F050FA3CA000F082FA3C4800F0FDFEB0
:100F50003BA000F07CFA022000F066FA00F053FAA1
:100F6000252000F0D0FB3C2000F068FD142000F0AC
:100F7000B0FD2DA134A000F035FA012000F033FBC4
:100F8000082000F078FB4FF4F071502000F0C3FA15
:100F90002A4800F0DAFE172000F025FB182000F0A8
:100FA0006AFB4FF49671782000F0B5FA234800F000
:100FB000CCFE912000F017FB4FF4B67000F05BFB05
:100FC0004FF4BE71B42000F0A6FA1C4800F0BDFE3C
:100FD000592000F008FB622000F04DFB4FF49671A1
:100FE000DC2000F098FA4FF4C8714FF4A07000F0C4
:100FF00092FA00BF01211648FFF71FFB42F2107062
:1010000000F0A3FE01211248FFF715FB1021114843
:10101000FFF713FB42F2107000F097FE10210D480D
:10102000FFF709FBE6E7000030374530000000001D
:10103000463830300000000030300000A08601004B
:101040003030303100000000303031460000000008
:10105000000C014000100140704700BFFEE700BFD8
:10106000FEE700BFFEE700BFFEE77047704770472E
:1010700010B500F07CFE10BD10B540F225511B48A4
:10108000FFF70CFFC8B11948FFF788FEC4B221462C
:101090001648FFF77FFE21461548FFF77BFE00BF8D
:1010A00040211248FFF7E4FE0028F9D000BF40219C
:1010B0000F48FFF7DDFE0028F9D010BD10B540F253
:1010C00025510B48FFF7EAFE70B10948FFF766FEAD
:1010D000C4B221460548FFF75DFE00BF402103482A
:1010E000FFF7C6FE0028F9D010BD0000003801400F
:1010F0000044004000B585B0012144F20400FFF730
:10110000A5FC4FF40070ADF8100018208DF8130006
:1011100003208DF8120004A97948FFF7E1F94FF494
:101120008060ADF8100004208DF8130004A9744805
:10113000FFF7D6F94FF4165000900020ADF80400E8
:10114000ADF80600ADF80800ADF80C000C20ADF8C5
:101150000A0069466B48FFF724FD012240F2255141
:101160006848FFF7B6FD01216648FFF7A6FD05B008
:1011700000BD00B585B001210420FFF767FC012107
:101180004804FFF770FC0420ADF8100018208DF81B
:10119000130003208DF8120004A95948FFF7A0F9A5
:1011A0000820ADF8100004208DF8130004A954485D
:1011B000FFF796F94FF4165000900020ADF80400A8
:1011C000ADF80600ADF80800ADF80C000C20ADF845
:1011D0000A0069464C48FFF7E4FC012240F2255121
:1011E0004948FFF776FD01214748FFF766FD05B046
:1011F00000BD08B54FF4E060FFF7A4F825208DF896
:10120000000000208DF8010001208DF802008DF80B
:1012100003006846FFF79BF808BD08B54FF4E0608F
:10122000FFF790F826208DF8000000208DF80100CF
:1012300001208DF802008DF803006846FFF787F85B
:1012400008BD70B504460D46E1B22E48FFF7A2FD79
:1012500000BF40212B48FFF70BFE0028F9D02046A5
:1012600070BD10B5044600BF20212648FFF700FEE0
:101270000028F9D02348FFF791FD10BD70B5044652
:101280000D4629462046FFF785FD00BF80212046F8
:10129000FFF7EEFD0028F9D070BD70B506460C468C
:1012A000002500BF615D3046FFF7E8FF6D1C605D03
:1012B0000028F7D100BF40213046FFF7D9FD0028B4
:1012C000F9D070BD2DE9F04105460C46260AE7B27B
:1012D00031462846FFF75EFD00BF80212846FFF714
:1012E000C7FD0028F9D039462846FFF753FD00BF57
:1012F00080212846FFF7BCFD0028F9D0BDE8F08129
:101300000008014000380140004400400146002030
:10131000302905DB392903DCA1F13002D0B210E01D
:10132000612905DB7A2903DCA1F15702D0B208E07C
:10133000412905DB5A2903DCA1F13702D0B200E0D4
:1013400000207047F8B5054600240026284600F026
:1013500059FD064600BF2BE0285DFFF7D7FF8DF84B
:101360000000611C685CFFF7D1FF8DF801009DF85B
:1013700001209DF8000002EB0011F348FFF70AFD81
:1013800000BF8021F048FFF773FD0028F9D09DF8D9
:1013900001209DF8000002EB0011EC48FFF7FAFC79
:1013A00000BF8021E948FFF763FD0028F9D0A41CA5
:1013B000B442D1DBF8BD1FB5E5A30FCB8DE80F001C
:1013C0006846FFF7BFFF1FBD1FB5E5A30FCB8DE834
:1013D0000F006846FFF7B6FF1FBD10B5E4A0FFF78A
:1013E000B1FF10BD30B587B004460D46D9A02B46DD
:1013F0002246E3A1009002A800F03CFD02A8FFF7FE
:10140000A1FF07B030BD00B58DB0D2A0DFA1E1A330
:10141000E2A2CDE90010E5A103A800F02BFD03A88E
:10142000FFF790FF0DB000BD10B504461CB9E2A057
:10143000FFF788FF0AE0012C03D1EF48FFF782FF96
:1014400004E0022C02D1EDA0FFF77CFF10BD10B527
:1014500086B00446BFA32246F4A101A800F00AFD0D
:1014600001A8FFF76FFF06B010BD2DE9FF4114463C
:101470001D4600220026002302930393009301934C
:1014800014E00346C71700EB17773F11A0EB0717CF
:101490000FF2A43C1CF807801746521C0DF1080CF3
:1014A0000CF80780C71700EB177738110028E8D130
:1014B000521E08E01346521E02AF17F803C033460F
:1014C000761C04F803C0002AF4DA0026002212E099
:1014D0000B46CF1701EB17773F11A1EB07170FF260
:1014E000583C1CF807801746521C0DF80780CF1790
:1014F00001EB177739110029EAD1521E07E0134694
:10150000521E1DF803C03346761C05F803C0002A9E
:10151000F5DABDE8FF8130B593B004460D460020F2
:101520000A900B90089009900690079004900590FF
:1015300004AB06AA29462046FFF797FF06A800F04D
:1015400061FC012804D0022808D0032812D10BE046
:1015500006AABEA10AA800F08DFC0CE006AABDA157
:101560000AA800F087FC06E006AABCA10AA800F0C1
:1015700081FC00E000BF00BF04A800F043FC01288C
:1015800004D0022808D0032812D10BE004AAAFA18E
:1015900008A800F06FFC0CE004AAAEA108A800F0B7
:1015A00069FC06E004AAADA108A800F063FC00E015
:1015B00000BF00BF67A008A90AAAA94BCDE9002176
:1015C0000290A84AA8A10CA800F054FC0AA9A548BA
:1015D00000F01FFC08A9A24800F01BFC0CA8FFF7B4
:1015E000B1FE13B030BDF0B58DB00446282103A87C
:1015F00000F0FDFBA0A0FFF7A5FE0A2C06DA55A31C
:101600002246A7A103A800F035FC2FE0642C0FDAD6
:101610000A2094FBF0F100FB114594FBF0F64DA07D
:101620002B463246A6A1009003A800F023FC1DE043
:10163000642094FBF0F100FB11400A2190FBF1F2D1
:1016400001FB1205642094FBF0F100FB11400A211C
:1016500090FBF1F6642094FBF0F73EA033463A4647
:10166000A0A1CDE9005003A800F004FC03A8FFF7F7
:1016700069FE0DB0F0BDF0B58DB00446282103A879
:1016800000F0B5FBA1A0FFF75DFE0A2C06DA31A33E
:101690002246A8A103A800F0EDFB2FE0642C0FDA8E
:1016A0000A2094FBF0F100FB114594FBF0F629A011
:1016B0002B463246A7A1009003A800F0DBFB1DE0FB
:1016C000642094FBF0F100FB11400A2190FBF1F241
:1016D00001FB1205642094FBF0F100FB11400A218C
:1016E00090FBF1F6642094FBF0F71AA033463A46DB
:1016F000A1A1CDE9005003A800F0BCFB03A8FFF7AF
:1017000021FE0DB0F0BDF0B58DB00446282103A830
:1017100000F06DFBA2A0FFF715FE0A2C06DA0DA360
:101720002246A9A103A800F0A5FB82E1642C0ADAF5
:101730000A2094FBF0F100FB114594FBF0F605A0A4
:101740002B46324650E155E100440040003801404C
:1017500041413030434333334333334300000000CF
:1017600041413532434333334333334300000000B8
:101770004141373932464343333343333343000027
:1017800041413430257325732573000030323341D5
:101790000000000030323236000000004141394282
:1017A00046463031303346383030000025732573DB
:1017B000257325730000000041413646303030412A
:1017C000303233414339453842314238443546445A
:1017D000423341334133414343374542433141432F
:1017E0004244443342354243423944434343333312
:1017F0004333334300000000802000084141364657
:101800003030304130323341443643454331433642
:101810004436443041314133413141334131413328
:1018200043433333433333430000000041413730F7
:1018300025732573000000003031323334353637DC
:1018400038394142434445460000000030303025DD
:101850007300000030302573000000003025730055
:101860002D000020280000204141353625732573C6
:1018700025732573257300004141394330323030E0
:101880004435303033433031333530303743303006
:101890004435303033434343333343333343000021
:1018A00041413938303131353030334330304331D4
:1018B000303746464646303031463325642573007E
:1018C00041413938303046353030334330304331A0
:1018D000303746464646303031463325643325643A
:1018E00025730000414139383030443530303343BE
:1018F0003030433130374646464630303146332566
:101900006433256433256425730000004141394365
:101910003032303139443030334330314644303066
:101920003743303139443030334343433333433327
:10193000334300004141393830314444303033437F
:101940003030433130374646464630303146332515
:1019500064257300414139383031424430303343DB
:1019600030304331303746464646303031463325F5
:1019700064332564257300004141393830313944DE
:1019800030303343303043313037464646463030CE
:101990003146332564332564332564257300000004
:1019A00041413943303230323542303033433032C6
:1019B000394230303743303235423030334343439D
:1019C00033334333334300004141393830323942F5
:1019D0003030334332344331303746464646303078
:1019E000314633256425730060A1009003A800F000
:1019F00041FA1EE0642094FBF0F100FB11400A2143
:101A000090FBF1F201FB1205642094FBF0F100FB66
:101A100011400A2190FBF1F6642094FBF0F7AFF23D
:101A2000CC2033463A465AA1CDE9005003A800F035
:101A300021FA03A8FFF786FC0DB0F0BDF0B58DB01C
:101A40000446282103A800F0D2F95BA0FFF77AFC36
:101A50000A2C07DAAFF20433224661A103A800F092
:101A600009FA31E0642C10DA0A2094FBF0F100FB53
:101A7000114594FBF0F6AFF224302B46324660A1BC
:101A8000009003A800F0F6F91EE0642094FBF0F14A
:101A900000FB11400A2190FBF1F201FB12056420CA
:101AA00094FBF0F100FB11400A2190FBF1F6642059
:101AB00094FBF0F7AFF2643033463A4659A1CDE9D2
:101AC000005003A800F0D6F903A8FFF73BFC0DB0C7
:101AD000F0BDF0B58DB00446282103A800F087F9C9
:101AE0005AA0FFF72FFC0A2C07DAAFF298332246F0
:101AF00060A103A800F0BEF931E0642C10DA0A20DE
:101B000094FBF0F100FB114594FBF0F6AFF2BC3012
:101B10002B4632465FA1009003A800F0ABF91EE00F
:101B2000642094FBF0F100FB11400A2190FBF1F2DC
:101B300001FB1205642094FBF0F100FB11400A2127
:101B400090FBF1F6642094FBF0F7AFF2F8303346E7
:101B50003A4659A1CDE9005003A800F08BF903A83B
:101B6000FFF7F0FB0DB0F0BD704700004141393880
:101B700030323742303033433234433130374646E7
:101B800046463030314633256433256425730000E2
:101B900041413938303235423030334332344331C9
:101BA0003037464646463030314633256433256467
:101BB000332564257300000041413943303230320F
:101BC00035423030433830323942303130383032BB
:101BD00035423030433843433333433333430000DB
:101BE0004141393830323942303043383234433170
:101BF000303746464646303031463325642573003B
:101C00004141393830323742303043383234433151
:101C100030374646464630303146332564332564F6
:101C20002573000041413938303235423030433875
:101C3000323443313037464646463030314633251C
:101C40006433256433256425730000004141394322
:101C50003032303235423031353430323942303141
:101C60003934303235423031353443433333433302
:101C70003343000041413938303239423031353454
:101C800032344331303746464646303031463325CC
:101C900064257300414139383032374230313534B0
:101CA00032344331303746464646303031463325AC
:101CB00064332564257300004141393830323542A0
:101CC0003031353432344331303746464646303091
:101CD00031463325643325643325642573000000C1
:101CE00030B527480068274AB0FBF2F1B1F1807F98
:101CF00001D301201DE021F07F40401E4FF0E02283
:101D0000506150170F22002807DA13071D0E1E4BD3
:101D100000F00F04241F1D5503E013071C0E1B4B7E
:101D20001C5400BF00204FF0E0229061072010619A
:101D3000002008B100BFFEE74FF0E020006920F06E
:101D400001004FF0E021086130BD01B51049009855
:101D500008604FF0E020006940F001004FF0E02102
:101D6000086100BF0A4800680028FBD108BD084888
:101D7000006820B106480068401E054908607047A9
:101D800000000020A086010018ED00E000E400E063
:101D90003400002008B501211820FEF757FE01206D
:101DA000ADF8000010208DF8030003208DF802002C
:101DB00069460948FEF794FB1820ADF80000694613
:101DC0000648FEF78DFB01210348FEF734FC18217D
:101DD0000248FEF730FC08BD000C01400010014035
:101DE000D2B201E000F8012B491EFBD2704700225D
:101DF000F6E710B513460A4604461946FFF7F0FF0A
:101E0000204610BD421C10F8011B0029FBD1801A8E
:101E10007047034611F8012B00F8012B002AF9D175
:101E20001846704730B50B46014600202022012499
:101E300009E021FA02F59D4205D303FA02F5491B98
:101E400004FA02F52844151EA2F10102F1DC30BDAE
:101E5000064C074D06E0E06840F0010394E80700F7
:101E600098471034AC42F6D3FEF766F9D02000084C
:101E7000F02000080FB4084B10B504A902AA03987B
:101E800000F01CF8044602A9002000F0F3F82046F8
:101E900010BC5DF814FB00007520000802E008C8C3
:101EA000121F08C1002AFAD170477047002001E0D4
:101EB00001C1121F002AFBD1704700002DE9FF4F1E
:101EC0008BB09A460F4605460026C9E0252837D133
:101ED00000246D1C6649A04601222B78203B02FAA3
:101EE00003F0084202D004436D1CF6E728782E2840
:101EF00017D115F8010F44F004042A280ED06FF012
:101F00002F022878A0F1300109290AD808EB8801AE
:101F100002EB410100EB01086D1CF2E757F8048B5E
:101F20006D1C287869283FD006DC002871D0632812
:101F30000CD0642804D137E0732811D075284ED016
:101F400052460D99904706F1010688E017F8040BF8
:101F50008DF8000000208DF80100E946012003E023
:101F600057F8049B4FF0FF3061074FF0000401D495
:101F70000AE0641C44450DDA8442FADB19F80410C7
:101F80000029F6D106E0641C8442FCDB19F8041039
:101F90000029F8D1264404E019F8010B52460D99A6
:101FA0009047641EF8D25AE001CF4FF00A0B002888
:101FB00004DAC0F100004FF02D0102E0210504D544
:101FC0002B218DF82410012103E0E10705D0202109
:101FD000F7E70DF1200908910CE00021F9E701CFA6
:101FE0004FF00A0BF9E75946FFF71CFF01F13002E9
:101FF00009F8012D0028F6D1ADEB090000F1200B06
:10200000600701D44FF00108D84503DDA8EB0B00B1
:1020100001E029E000208046002406E009A852469D
:10202000005D0D999047761C641C08988442F5DB8E
:1020300004E0302052460D999047761CB8F100011B
:10204000A8F10108F5DC05E019F8010B52460D99DD
:102050009047761CBBF10001ABF1010BF4DC6D1C69
:10206000287800287FF432AF0FB03046BDE8F08FFB
:10207000092801000A68531C0B60107070470000AB
:1020800041413646303030413032334143394538B2
:10209000423142384435464442334133413341436F
:1020A000423543384234464444364345433143364F
:1020B0004246414143414243413141334131413341
:1020C0004131413343433333433333430000000052
:1020D000F020000800000020380000009C1E0008CE
:1020E000282100083800002000040000AC1E000871
:1020F00000A24A04000000000000000001020304E6
:10210000060708090000000001020304010203049D
:10211000060708090204060830303443003031460F
:0821200038000000000000007F
:0400000508000131BD
:00000001FF
